:020000040800F2
:10000000403B002061740008097200080B72000870
:100010000D7200080F720008117200080000000045
:10002000000000000000000000000000B1710008A6
:1000300013720008000000005971000815720008D2
:10004000797400087D7400088174000885740008C4
:10005000897400088D7400082D72000891740008DE
:10006000957400083372000839720008997400080A
:100070009D740008A1740008A5740008A974000804
:10008000AD740008B1740008B5740008B9740008B4
:100090003F720008BD740008C17400084572000872
:1000A000C5740008C9740008CD740008D174000834
:1000B000D5740008D9740008DD740008E1740008E4
:1000C000E5740008E9740008ED740008F174000894
:1000D000F574000885700008F97400081B280008F2
:1000E000FD74000801750008057500080975000811
:1000F0000D7500084B72000811750008FD720008AC
:1001000015750008197500081D750008217500088F
:1001100025750008297500082D750008317500083F
:1001200035750008517200082D3600083975000831
:100130003D750008417500084575000849750008BF
:10014000577200084D750008517500085D7200086F
:10015000557500086372000869720008A7700008EE
:10016000597500085D75000861750008657500081F
:10017000697500086D7500087175000800000000C1
:1001800075750008797500082DE9F74FDFF840070D
:10019000016882B008460091016849084900016081
:1001A000DFF844170A6800921046016849084900C0
:1001B000016004E001460868400840000860DFF87C
:1001C00010070268009210460168CA07F2D4DFF8EF
:1001D000180700680168CA0741BF0168490849005B
:1001E0000160F4D4DFF8E406DFF8E866C16C0C685F
:1001F000B4424FF480204FF480714FF000724FF4FE
:1002000000234FF400794FF080654FF4801A4FF4CB
:10021000806B4FF0006C4FF4001E4FF4006820D349
:10022000DFF8C876BC4202D1202701970EE0DFF844
:10023000C066B44208BFCDF8048007D0DFF8B466CA
:10024000B4420CBFCDF804E0CDF804C0019FDFF844
:1002500090667760DFF89466B4426DD110270197FD
:1002600078E0DFF88066B44220D3DFF88C76BC42B9
:1002700002D1202701970EE0DFF88066B44208BF64
:10028000CDF8048007D0DFF87866B4420CBFCDF813
:1002900004E0CDF804C0019FDFF844663760DFF862
:1002A0005866B44261D1102701976CE0DFF82C66E4
:1002B000B44220D3DFF84C76BC4202D1202701970C
:1002C0000EE0DFF84466B44208BFCDF8048007D0E2
:1002D000DFF83866B4420CBFCDF804E0CDF804C0B6
:1002E000019FDFF8F4657760DFF81866B44255D1F6
:1002F0001027019760E0DFF81866B44202D120278A
:1003000001970EE0DFF80C66B44208BFCDF8048018
:1003100007D0DFF80466B4420CBFCDF804E0CDF896
:1003200004C0019FDFF8B0653760DFF8E465B442D0
:100330004DD11027019758E0DFF8B465B44208BFEB
:10034000CDF804B006D0DFF8AC65B4420CBFCDF8F0
:1003500004A00195DFF88865019F7760DFF88C7550
:10036000BC424DD10827019757E0DFF89065B442B1
:1003700008BFCDF804B006D0DFF88465B4420CBFE6
:10038000CDF804A00195019FDFF854653760DFF8D0
:100390006865B44249D10827019753E0DFF86865E2
:1003A000B44208BFCDF804B006D0DFF86065B442AF
:1003B0000CBFCDF804A00195DFF81C65019F7760A4
:1003C000DFF84075BC4247D10827019751E0DFF8BC
:1003D0004465B44208BFCDF804B006D0DFF83865F4
:1003E000B4420CBFCDF804A00195019FDFF8E8648A
:1003F0003760DFF81C65B44243D1082701974DE010
:10040000DFF8EC74BC4208BFCDF8049005D0DFF8EB
:10041000E474BC420CBF01930192019F7760DFF846
:10042000CC74BC4244D1042750E0DFF8D064B4421D
:1004300008BFCDF8049005D0DFF8C464B4420CBF07
:1004400001930192019FDFF898643760DFF8A86498
:10045000B44243D104274FE0DFF8AC74BC4208BF7C
:10046000CDF8049005D0DFF8A474BC420CBF019312
:100470000192019F7760DFF88C74BC4247D104275A
:1004800053E0DFF89064B44208BFCDF8049005D083
:10049000DFF88464B4420CBF01930192019FDFF83E
:1004A00038643760DFF86864B44247D1042753E00A
:1004B000DFF83C74BC4208BF019108D0DFF8347407
:1004C000BC4208BF019002D04FF080770197019F96
:1004D0007760DFF81874BC4249D12DE0DFF81C7456
:1004E000BC4208BF019108D0DFF81464B44208BFD1
:1004F000019002D04FF080770197019FDFF8E06311
:100500003760DFF8F463B44240D101244CE0DFF8F7
:10051000F873BC4208BF019108D0DFF8F073BC4209
:1005200008BF019002D04FF080770197019F77605C
:10053000DFF8D073BC423AD1012446E0DFF8D4732F
:10054000BC4208BF019108D0DFF8CC63B44208BFB9
:10055000019002D04FF080770197019FDFF8786318
:100560003760DFF8AC63B44231D101243DE0DFF8FD
:100570008073BC4208BF402427D0DFF87873BC42A8
:1005800014BF4FF480044FF480341EE0DFF86C6336
:10059000B44208BF402407D0DFF86463B4420CBF04
:1005A0004FF480344FF48004DFF834631FE0DFF849
:1005B0005873BC4208BF402407D0DFF85073BC42D8
:1005C0000CBF4FF480344FF48004746010E0DFF807
:1005D0004463B44208BF402407D0DFF83C63B44210
:1005E0000CBF4FF480344FF48004DFF8EC623460C9
:1005F000B64CDFF8E072A66CDFF8E4423668BE4223
:100600001AD3DFF8E872BE4208BF4FF0200C08D0C2
:10061000B74FBE4208BFC44603D0B64FBE4208BF64
:10062000F446DFF8C882B34FDFF8C4E2C4F804C070
:1006300046454FD1102554E0AA4FBE4215D3AE4FC8
:10064000BE4208BF4FF0200C08D0AC4FBE4208BFDE
:10065000C44603D0AA4FBE4208BFF446A64FC4F812
:1006600000C0BE4242D110254BE09C4FBE424FF02D
:10067000807417D3A34FBE4208BF4FF0200C08D0A0
:10068000A14FBE4208BFC44603D0A04FBE4208BF20
:10069000F446DFF844E29B4FCEF804C0BE4235D1A9
:1006A00010253EE09A4FBE4208BF4FF0200C08D004
:1006B000984FBE4208BFC44603D0974FBE4208BF02
:1006C000F446DFF814E2924FCEF800C0BE4230D1BB
:1006D000102539E0764508BF5D4602D0BE4208BF0E
:1006E00055464645656035D108223AE0DFF80CE210
:1006F000764508BF5D4604D0DFF804B25E4508BF0A
:100700005546BE42256031D1082238E0DFF8F8E1D5
:10071000764508BF5D4604D0DFF8F0B15E4508BFFE
:100720005546DFF8B4A1BE42CAF804502ED10822C3
:1007300035E0DFF8E081464508BF5D4604D0DFF8CC
:10074000D8B15E4508BF5546BE42CEF800502ED106
:10075000082235E0764508BF4A4602D0BE4208BFAF
:100760001A464645626033D1042039E0634DAE42FB
:1007700008BF4A4603D0624DAE4208BF1A46226007
:10078000BE425F4A5D4B30D1042036E05E4DAE4242
:1007900008BF4A4603D05D4DAE4208BF1A46CAF8AC
:1007A0000420BE42594A584B2CD1042431E0594D03
:1007B000AE4208BF4A4603D0574DAE4208BF1A4664
:1007C000CEF80020BE42544A524B28D104202DE0DE
:1007D000764508BF084603D0BE4218BF4FF0807070
:1007E0004645606028D1012030E09E4208BF08469F
:1007F00003D0964218BF4FF08070BE42206027D1D0
:1008000001202FE09E4208BF0C4602D0964208BF4E
:100810000446BE42CAF8044026D101202EE09E4282
:1008200008BF084602D0964218BF2046BE42CEF806
:10083000000026D101202EE0764508BF402005D0DB
:10084000BE420CBF4FF480304FF48000606024E063
:100850009E4208BF402005D096420CBF4FF4803026
:100860004FF48000206018E09E4208BF402005D071
:1008700096420CBF4FF480304FF48000CAF8040059
:100880000BE09E4208BF402005D096420CBF4FF4BB
:1008900080304FF48000CEF80000009BBDF810209F
:1008A00003990298D96010490968C86000984260AD
:1008B0004A600098026842F0010202600A6842F051
:1008C00001020A6005B0BDE8F08F0000E0150020CD
:1008D0001809002059640240086002405960024033
:1008E00008640240B9600240780900207064024048
:1008F00088640240A0640240106402402864024000
:10090000406402407060024088600240A060024083
:1009100010600240286002404060024038B5040088
:1009200001D1012032BD00F0DBF818B900F045FA22
:1009300000F059FD35E090F83D10012901D001206B
:100940007047022180F83D10DFF87821016891425C
:1009500018BFB1F1804F17D0DFF86C2191421CBF56
:10096000DFF8683199420FD0DFF8642191421CBF53
:10097000DFF86031994207D0DFF85C2191421CBF5B
:10098000DFF85831994205D1896801F0070106293D
:1009900005D001680A68084642F0010202600020A2
:1009A000704702206870211D206800F00AFA0120BB
:1009B000A8720121A970E87029716871A971E871A4
:1009C000297268726970002032BD38B5040001D107
:1009D000012032BD00F084F818B900F0EEF900F003
:1009E00073FEDEE710B5044604F13E0009B9027853
:1009F00007E0042908BF427803D008290CBF827899
:100A0000C278012A01D0012010BD11B90222027062
:100A10000AE0042902D10222427005E0082907BF3A
:100A2000022282700223C3702068012200F00DFBB5
:100A300000F02BF818BF884200F02EF818BFB0F174
:100A4000804F12D000F01DF81CBFDFF880309842B4
:100A50000BD000F012F818BF884206D000F029F839
:100A60001CBFDFF87820904203D100F01DF802D0BF
:100A7000206800F021F8002010BDDFF854209042DB
:100A80007047DFF84420904270472068DFF8342038
:100A9000DFF840109042704703D1436C43F40043A9
:100AA0004364206890427047806800F00700062881
:100AB00070470949884270470168024641F00101C8
:100AC0001160704700000140000400400008004031
:100AD000000C0040000401400040014000180040AC
:100AE00004F13C056878704710B504462068016938
:100AF0008A0715D5C1688A0712D56FF00201016116
:100B000001222277806910F0030F204602D000F006
:100B1000DCFD03E000F0DAFD00F087F8002020772C
:100B2000206801694A0715D5C1684A0712D56FF0D8
:100B30000401016102222277806910F4407F20467F
:100B400002D000F0C2FD03E000F0C0FD00F06DF83F
:100B500000202077206801690A0715D5C1680A07B7
:100B600012D56FF00801016104222277C06910F0EC
:100B7000030F204602D000F0A8FD03E000F0A6FD20
:100B800000F053F80020207720680169CA0615D5C7
:100B9000C168CA0612D56FF01001016108222277E0
:100BA000C06910F4407F204602D000F08EFD03E0C3
:100BB00000F08CFD00F039F80020207720680169F2
:100BC000CA0708D5C168CA0705D56FF001010161E0
:100BD000204600F07CFD206801690A0608D5C1683E
:100BE0000A0605D56FF080010161204600F070FD16
:100BF000206801694A0608D5C1684A0605D56FF024
:100C000040010161204600F064FD206801698A0608
:100C10000AD5C1688A0607D56FF020010161204618
:100C2000BDE8104000F056BD10BD204600F053BD99
:100C3000002084F83C002846704770B500F058F852
:100C400001D1022070BD012084F83C0032B1042A99
:100C500015D0082A25D00C2A34D045E0206800F0B1
:100C6000FBF82168886940F008008861886920F0F5
:100C7000040088618A69306902438A6135E020682E
:100C800000F016F92068816941F400618161816991
:100C900021F4806181618169326941EA02218161C7
:100CA00023E0206800F034F92168C86940F00800AA
:100CB000C861C86920F00400C861CA69306902438C
:100CC000CA6112E0206800F052F92068C16941F45D
:100CD0000061C161C16921F48061C161C16932698A
:100CE00041EA0221C16100E00125FFF7A1FF70BDCB
:100CF0000446002594F83C0001280E46704770B564
:100D0000064606F13C0500242878012801D102207E
:100D100070BD0120287002226A70DFF898023268E4
:100D20009368034093600868020018BF102830D011
:100D3000202818BF30282CD0402826D0502819D081
:100D400060281BD0702806D0B0F5805F27D0B0F5A2
:100D5000005F07D022E000F02BF83068816841F096
:100D6000770105E000F024F83068816841F48041A3
:100D7000816014E000F018F850210BE0CA6849685F
:100D8000306800F03EF9602104E000F00DF84021E9
:100D900000E00146306800F046F900E0012401203F
:100DA000687000F00AF870BDCA684968306819E1D7
:100DB000CB684A68896830683DE100212970204687
:100DC0007047F0B505687C4C7C4B7D4E7D4FDFF85D
:100DD000F8C1A04218BFB0F1804F07D0604518BFDE
:100DE000B84203D0B04218BF98420DD14A6825F0EE
:100DF00070051543A04218BFB0F1804F17D0604571
:100E00001CBFB842B04212D098421CBF6F4A9042F9
:100E10000DD06F4EB0421CBF6E4A904207D06E4E4E
:100E2000B0421FBF6D4A90426D4EB04203D1CA68B6
:100E300025F4407515434A6925F080051543056082
:100E4000A0428D68C5620A68826212BF9842096931
:100E5000016301224261F0BDF0B5026A564F5208AB
:100E600052000262066A446885690B688A6825F048
:100E7000730526F002061D431643504BB84218BFB7
:100E8000984207D1CA6826F008061643B84226F0F1
:100E9000040601D0984205D14B698A6924F4407454
:100EA0001C43144344608561496841630662F0BD98
:100EB000F0B5026A404E22F010020262B042056AAA
:100EC000436884690A6824F4E64444EA02248A6890
:100ED00025F0200545EA0215384A18BF904208D18E
:100EE000CF6825F0800545EA0715B04225F040059A
:100EF00001D0904206D14E698A6923F440631643BB
:100F000043EA860343608461496881630562F0BDFA
:100F1000F0B5026A22F480720262056A4368C4690D
:100F20008E680A6825F4007524F0730445EA0625E6
:100F30001443214E214AB04218BF904208D1CF68D5
:100F400025F4006545EA0725B04225F4806501D007
:100F5000904206D14E698A6923F44053164343EA0E
:100F600006134360C4614968C1630562F0BD70B592
:100F7000026A114E22F480520262B042046A426850
:100F8000C3690D6823F4E64343EA05238D6824F41E
:100F9000005444EA05341CBF084DA84204D14D69F1
:100FA00022F4804242EA85124260C36149680164CA
:100FB000046270BD8800FFFF000001400004014092
:100FC000000C0040000800400004004000400140C8
:100FD000004401400048014000180040001C00404F
:100FE0000020004010B5036A046A640864000462CB
:100FF00023F00A03846924F0F00444EA02148461B3
:101000002EE010B5036A23F0100303628369046ABB
:1010100023F4704343EA023324F0A004836144EADA
:101020000114046210BD826822F07002114341F085
:1010300007018160704710B5846824F47F44214320
:10104000114341EA0321816010BD10B501F01F0179
:10105000036A01248C40A343036202FA01F1036A8C
:101060001943016210BD30B50168846842184168B7
:1010700002EB5103C90703D54C4401E0491C08D1D8
:101080009A4218BF12F9011B01D10C3030BD12F881
:10109000015B002904F8015BF0D4491EF7D5EFE7A6
:1010A00018B595B000F05AF900F060F800F0A1F81A
:1010B000202200F057F8DFF8BC45DFF8BC052060BF
:1010C000A72140F2711000F03FF908B100F09AFB3F
:1010D00000F02DF808B100F095FB00F0D3F808B14E
:1010E00000F090FB00F0D6F808B100F08BFB00F0A8
:1010F0003AF908B100F086FB00F0C7F808B100F03B
:1011000081FB082200F0C2F808B100F07BFB0C2242
:1011100000F0BCF808B100F075FB00F003F908B16D
:1011200000F070FB204600F0B0F916B010BD4FF48F
:101130008050119011A92046FFF7E1BD18B58DB080
:1011400000F00FF800F012F800F053F8DFF82C452B
:10115000DFF82C052060002142F2CF0000F08CF86F
:101160001BE01022002109A800F04EBB082200213C
:10117000684600F049BB18B58DB0FFF7F2FFFFF7E6
:10118000F5FF00F036F8DFF8FC44DFF8FC042060DF
:10119000A7214FF6FF7000F01FF92046FFF7BEFBB6
:1011A00008B100F02FFB4FF48050099009A9FFF718
:1011B000C2FF08B100F026FB00F064F808B100F0AF
:1011C00021FB00F067F808B100F01CFB6021002251
:1011D000029103920492069202A908222046FFF788
:1011E0002CFD08B100F00EFB204600F04EF90EB0C9
:1011F00010BD1C22002102A800F006BB18B58DB05E
:10120000FFF7AFFFFFF7B2FFFFF7F3FFDFF87C4414
:10121000DFF87C04206000214FF6FF7000F02CF80E
:101220002046FFF77BFB08B100F0ECFA4FF480504A
:10123000099009A9FFF77FFF08B100F0E3FA00F079
:1012400021F808B100F0DEFA00F024F808B100F04F
:10125000D9FA60210291002203920492069200F0D2
:1012600015F808B100F0CEFA00F00FF808B100F060
:10127000C9FA082202A9B1E7E0606160A1602161BA
:10128000A16170472046FFF7A0BB042202A92046B7
:10129000FFF7D3BC0021009101912046694600F080
:1012A000BDBA18B595B000F059F8FFF75FFFFFF72A
:1012B000A0FF2022FFF756FFDFF8D843DFF8D8035E
:1012C0002060A7214FF4B97000F03EF808B100F09B
:1012D00099FAFFF72CFF08B100F094FAFFF7D2FF5C
:1012E00008B100F08FFAFFF7D5FF08B100F08AFAD5
:1012F00000F039F808B100F085FAFFF7C6FF08B131
:1013000000F080FA00F00EF808B100F07BFA2046F9
:1013100000F0BBF8FFF7B6FF00F0A1F900F010F8FD
:1013200016B010BD00204FF4005109900A900B90A8
:101330000C900D900E91109009A9204600F0B4BABF
:1013400004212046FFF74EBB0022E0606160A260EE
:1013500022616261A2612046FFF7E0BA10220021FB
:1013600011A800F051BA60200021029003910022E0
:101370000591079104920692089202A92046FFF770
:101380005CBC18B587B01C22FFF7F1FEDFF80C43F8
:10139000DFF80C032060A72140F2711000F01CF868
:1013A0002046FFF7BBFA08B100F02CFAFFF76AFFFE
:1013B00008B100F027FA6021009100220192029208
:1013C00004926946FFF763FF08B100F01BFA20465C
:1013D00000F05BF808B010BD0022E0606160A26020
:1013E0002261A261704781B00168A34AAD48914271
:1013F00009D100210091426842F001024260406838
:1014000000F001003DE09E4A914207D10021009189
:10141000026842F002020260006823E09A4A9142A8
:1014200009D100210091026842F0040202600068C4
:1014300000F0040025E0964A914209D10021009174
:10144000026842F008020260006800F0080018E03C
:10145000914A914209D100210091426842F0020272
:101460004260406800F002000BE08D4A91420AD1D0
:1014700000210091426842F400324260406800F46A
:1014800000300090009801B0704710B586B0044657
:101490001422FFF76CFE2168774A834891421FD1DE
:1014A000002105914FF4D4410268724C42F01002C1
:1014B00000F0BCF800F01000059005987B48009102
:1014C00001920121029100F0ACF800F0C5F800F0A3
:1014D000C6F8FFF735FF0821FFF733FF0C219CE02A
:1014E000674A734C914215D1002105914FF48071E8
:1014F000026842F0040200F099F800F00400059040
:10150000059800F097F8204600F0F8F95B4C00F0E1
:10151000A3F838E05C4A914219D1002105914FF4BB
:1015200080410268574C42F0080200F07FF800F05A
:101530000800059005985F480091019201210291F1
:101540000322022100F06DF800F086F81BE0504AFB
:1015500091421AD1002105914FF4E05102684B4CA1
:1015600042F0800200F062F800F0800005900598DB
:10157000514800F05FF800F0C1F900F06DF800F09C
:101580006EF8FFF7DDFE082147E0434A91422ED175
:1015900000210591026842F4807202600022016815
:1015A00001F480710591059905924021036843F08B
:1015B000040303600222006800F00400059005980F
:1015C0003E4800F03FF801220292402002210090A4
:1015D00001910391032204926946204600F08EF99E
:1015E0002C4C00F039F800F03AF8042115E02C4AB0
:1015F000914214D10021059140210268274C42F00C
:10160000200200F013F800F02000059005982C4807
:1016100000F018F800F020F80021FFF792FE06B065
:1016200010BD04910392694600F068B9026002227D
:101630000068704700910192012102910392049287
:1016400069467047009101920121029103920321A2
:101650000491694600F052B92046FFF76CB90021A9
:101660002046FFF7BFB910B5164C2060616062607C
:10167000636010BDC8170020000001401018002052
:10168000000400405818002000080040A018002066
:10169000000C0040E8180020000401403019002030
:1016A00000440140403802403038024000100240FF
:1016B00000080240000C0240001C024000200240D2
:1016C0000014024034000140704770477047704773
:1016D000704770477047704780B500F01FFA00F000
:1016E0003EF800F035FA00F029FB00F07BFB00F03B
:1016F00085FB00F003FC00F009FC00F0A9FC00F001
:1017000099FDFFF738FDFFF779FD00F07DFEFFF74B
:10171000C8FD00F08FFF00F0B3FF00F0A2FC00F066
:10172000BBFC00F0D3FF00F08DFDFFF7B9FCFFF725
:1017300005FDFFF726FE00F063FE00F07DFE00F0E1
:10174000FDFF01F029F801F062F801F039F901F02C
:1017500091F901F00BFB022001F052FCF9E780B592
:1017600092B0302106A801F05FFC142101A801F01D
:101770005BFC002000904FF480332048016841F06A
:10178000805101600021006800F0805000900098B6
:101790001B480091026842F4804202600122006806
:1017A00000F48040009006A80099069202214FF4B0
:1017B00080020C910D920621A8220E910F92022117
:1017C000072207931091119201F032FC08B172B612
:1017D000FEE702210291002203920F204FF4A05154
:1017E000019004914FF480520592052101A801F067
:1017F000ADFD08B172B6FEE713B000BD403802403F
:101800000070004072B6FEE710B5044610460A4666
:101810000146204601F044FE204610BD70B500F19F
:101820003C031A78012A01D1022070BD01221A70EE
:1018300002245C7005686E68AC680A6826F0700661
:1018400016436E6002681148824218BFB2F1804FA1
:1018500011D0114882421CBF104DAA420BD00D4836
:1018600082421CBF0E4DAA4205D0094882421CBFCD
:101870000C4DAA4204D1486824F0800404439460CB
:10188000012159700020187070BD00000000014057
:1018900000400140000C00400004004000080040EF
:1018A000000401400018004010B590F83C20012AC7
:1018B00001D1022010BD012280F83C20CC688A684A
:1018C0004B6824F44074144324F480641C430A6875
:1018D0000B6924F40064144324F480541C434A69C3
:1018E000C96924F400541443026824F480440C436E
:1018F0005464002380F83C30002010BD2DE9F84FDF
:101900000D46002679497A4A0F23044601202F68A4
:10191000B04000EA0708804540F0D5804FEA460C09
:10192000032707FA0CF76FEA070E6F6807F0030941
:10193000B9F1010F1CBF07F00307022F12D1A768EE
:10194000D5F80C900EEA070709FA0CF949EA0707DF
:10195000A760676827EA00006F68C7F30017B74001
:1019600038436060B0002F7907F00307032F21D0C0
:10197000E768D5F808900EEA070709FA0CF949EA72
:101980000707E7602F7907F00307022F12D1F70846
:1019900004EB870700F01C09D7F820A003FA09FB25
:1019A0002AEA0B0AD5F810B00BFA09F949EA0A0934
:1019B000C7F8209027680EEA070E2F7907F0030773
:1019C00007FA0CF747EA0E0CC4F800C06F6817F46A
:1019D000403F78D04FF0000ECDF800E04FEA960C73
:1019E000176847F48047176000F00C00D2F800E059
:1019F000404F0EF4804ECDF800E0DDF800E057F8DF
:101A00002C7003FA00FE27EA0E0E3B4FBC4208BFC3
:101A1000002722D0394FBC4208BF01271DD0384FC4
:101A2000BC4208BF022718D0364FBC4208BF03276C
:101A300013D0354FBC4208BF04270ED0334FBC42F1
:101A400008BF052709D0324FBC4208BF062704D083
:101A5000304FBC420CBF0727082707FA00F040EAC6
:101A60000E00DFF890E04EF82C006FEA0800D1F885
:101A700000C06F6800EA0C0CFF0348BF48EA0C0C7A
:101A8000C1F800C0D1F804C06F6800EA0C0CBF03B5
:101A900048BF48EA0C0CC1F804C0D1F808C06F6810
:101AA00000EA0C0CFF0248BF48EA0C0CC1F808C061
:101AB000D1F80CC000EA0C0C6868800248BF48EA04
:101AC0000C0CC1F80CC0761C0F2E7FF61FAFBDE8C2
:101AD000F18F02B90904816170470F4A136801460A
:101AE0000B421CBF116001F0E5BC7047003C014097
:101AF000443802400838014000000240000402401F
:101B000000080240000C0240001002400014024095
:101B100000180240001C0240143C014080B50B48F4
:101B2000016841F400710160026842F48062026061
:101B3000016841F480710160032001F096FE0F20DE
:101B400001F0E8FE01F006FF002002BD003C02406B
:101B5000F8B586B0142200216846FFF755FE002133
:101B60006A486B4F6B4C6C4D05914FF4041602683C
:101B700042F0020202600022016801F0020100F05E
:101B8000D8F843F040030360016801F0400100F021
:101B9000D0F843F001030360016801F0010100F097
:101BA000C8F843F008030360016801F0080100F081
:101BB000C0F843F004030360016801F0040100F081
:101BC000B8F843F480730360016801F4807100F099
:101BD000B0F843F020030360016801F0200100F039
:101BE000A8F843F080030360016801F080010591CB
:101BF000059905920122036843F010030360402118
:101C0000006800F01000059005983846FFF761FF66
:101C1000012210212046FFF75CFF012241F2010161
:101C20002846FFF756FF80200021009001910122F5
:101C3000029269463948FFF761FE402100F072F8D0
:101C40003846FFF75BFE09200121009002910196C2
:101C500069463846FFF752FE0720002100900191A7
:101C6000029169462E4F3846FFF748FE01200021B9
:101C700000900191029069462046FFF73FFE012245
:101C8000019202921021009102220392694620469D
:101C9000FFF734FE30210091019601210291384670
:101CA0006946FFF72BFE4FF4805100F03BF82846C1
:101CB000FFF724FE0121009101910291022203927B
:101CC00069462846FFF71AFE00220621062001F089
:101CD000D9FD062001F0F3FD00220521092001F0C5
:101CE000D1FD092001F0EBFD002205210A2001F0C1
:101CF000C9FD0A2001F0E3FD00220521172001F0B3
:101D0000C1FD172001F0DBFD07B0F0BD3038024007
:101D1000001802400000024000040240002002407F
:101D2000000802400091012201920292039269464A
:101D300070470591059905920368704780B50020AA
:101D400000902748016841F480010160026802F4B4
:101D5000800200920022009900920521036843F45A
:101D600000130360006800F40010009000980C203D
:101D700001F088FD0C2001F0A2FD002205212F209A
:101D800001F080FD2F2001F09AFD0022052139206D
:101D900001F078FD392001F092FD002205213A2062
:101DA00001F070FD3A2001F08AFD002205213B2060
:101DB00001F068FD3B2001F082FD00220521452055
:101DC00001F060FD452001F07AFD0022052146204A
:101DD00001F058FDBDE80240462001F070BD00BF93
:101DE000303802401FB500F021F83D4C3D4800F06E
:101DF00022F808B1FFF706FD10200AE01FB500F039
:101E000015F8394C394800F016F808B1FFF7FAFC1C
:101E1000082001210090019100220292694620468B
:101E200001F06DFE08B1FFF7EDFC1FBD102200218F
:101E30006846FFF7E9BC20604FF400312C48A062EF
:101E400000220120E06160616160A260226122766F
:101E500084F82020E262E26084F83020204601F01D
:101E600099BD10B586B004461422002101A8FFF7E1
:101E7000CBFC21681B4A1F4891420BD100210091E5
:101E8000426942F480724261406900F480700090BF
:101E9000009823E0154A914220D100210091426927
:101EA00042F4806242610022416901F48061009144
:101EB000009900924FF48061036843F020030360AF
:101EC0000322006800F02000009000980A48019169
:101ED00002920021039101A9FFF710FD06B010BD89
:101EE0003817002000200140801700200022014008
:101EF0000100000F303802400014024080B54C4809
:101F00004C4900F00BF800B118E001BD80B54A481B
:101F10004A4900F003F800B110E001BD016003225E
:101F2000426000234FF410224FF400118360C3601D
:101F3000026141618361838301F086BEBDE8014097
:101F4000FFF760BC10B586B004461422002101A83A
:101F5000FFF75AFC3A4923680A68364C3948521C44
:101F6000A34220D1012A07D100230093046944F041
:101F70000074046100F049F800240094022403680E
:101F800043F0080303600323006800F0080000909A
:101F900000982D4800F03FF800220621142001F09F
:101FA00071FC14202DE0254CA3422CD1002300937A
:101FB000012A046944F080640461036903F08063CA
:101FC0000093009B07D100240094036943F0007341
:101FD000036100F01AF8002400940224036843F01F
:101FE000020303606023006800F002000090009884
:101FF000164800F010F800220621402001F042FCB3
:10200000402001F05CFC06B010BD036903F00073D2
:102010000093009B704701930294002303930324D1
:10202000092305930A60049401A9FFF767BC000027
:10203000741A0020006400409C1A002000680040D0
:10204000381B002030380240000C024000040240DF
:102050006A4A6B486B4980B500F00CF800B117E094
:1020600001BD664A6848694980B500F003F800B1CF
:102070000EE001BD426000234FF4804201608360A6
:10208000C360026143618361C361036202F0F4B81B
:10209000BDE80140FFF7B6BB584A5D485D4980B5D1
:1020A000FFF7E8FF00B1F3E701BD38B586B004469D
:1020B000142200216846FFF7A7FB20685149564DBE
:1020C00088421AD1002005901222296841F00201AD
:1020D00029604FF44071286800F0020005900598CF
:1020E0004E4800F080F800200590296941F4001165
:1020F0002961286900F4001071E04449884237D111
:10210000002005901222296841F020012960032156
:10211000286800F0200005900598414800F063F819
:10212000002005904FF06062296941F48001296127
:1021300028693C4D3C4900F48000059005982960D1
:102140004020A86000214FF4806028616A604FF44D
:1021500000302862E9606961A961E9616962284625
:1021600002F034F908B1FFF74DFB6563AC6338E06A
:102170002849884235D100200590296841F00401A2
:1021800029600021286800F0040005900598059159
:102190004FF400712A6842F001022A601222286876
:1021A00000F0010005900598204800F01CF812216D
:1021B0000191012202924FF480700321009003915B
:1021C0000422049269461A48FFF798FB0020059004
:1021D000296941F400012961286900F40000059093
:1021E000059807B030BD00910192012102910322B0
:1021F0000421049103926946FFF780BB801A060010
:10220000A412002000540040901600200058004006
:10221000E4160020005C0040303802400004024018
:102220000014024000140020B86002400008024080
:102230000000024080B56948694900F00BF800B120
:102240001FE001BD80B56748674900F003F800B1A1
:1022500017E001BD01604FF48272012142604161CB
:10226000022238210261C16100234FF400720A2169
:102270008360C3608261036243628362C16202F071
:1022800063BABDE80140FFF7BDBA2DE9F04186B061
:102290000446142200216846FFF7B6FA2268504B24
:1022A000524853499A426CD1002205924FF0C067C0
:1022B0004B69504E43F480534B6100234A6902F44A
:1022C000805205924FF48068059A05930D6845F099
:1022D00002050D600A6802F002020592059A059354
:1022E00018220D6845F001050D6002230968424D72
:1022F00001F0010100F064F8022101910122029233
:1023000080200321009003910522049269463B48F6
:10231000FFF7F4FA0020A860E8606861A861E8614E
:102320004FF44031686229622E606F60C5F81080FA
:10233000284602F04BF808B1FFF764FA06F11800DE
:10234000402105F18406E5642866A9660020E86658
:10235000A86700214FF40030C5F880006967E9677D
:102360003160AC636F66C5F8708005F1600002F003
:102370002DF808B1FFF746FA05F16000A06474611A
:102380001BE0194B9A4218D1002205920B6943F4C5
:1023900080430B6100230A6902F480420592059A8A
:1023A00005934FF460420C6844F002040C60022371
:1023B000096801F0020100F003F806B0BDE8F08101
:1023C00005910599009201930122029203230522AF
:1023D000039304926946FFF791BA0000E0150020CC
:1023E0000030014038160020003800400004024050
:1023F00030380240406402401809002000000240CA
:1024000010B57E4C7E481AE080B57E487E497F4AF2
:102410000160426000234FF480620C218360C3603E
:10242000026141618361C36102F0F0F918B1BDE856
:102430000140FFF7E7B901BD10B5754C7548206044
:102440004FF4E1310C20002260616160A260E26023
:102450002261A261E261204602F0D8F908B1FFF7DB
:10246000D1F92068C16841F02001C16010BD38B5C4
:1024700086B00446142200216846FFF7C5F921689A
:102480005F4A6548914238D100210591426942F086
:10249000100242610022416901F0100100F09EF833
:1024A000036843F002030360016801F0020100F0D9
:1024B00095F88021036843F001030360022200685D
:1024C00000F0010005900598544800F08BF80221B7
:1024D0000191002202924FF40070032100900391B9
:1024E0000722049269464E48FFF708FA02220021AB
:1024F000252001F0C7F925206CE0434A91423CD1E8
:10250000002105910269474D42F4802202610022B8
:10251000016901F4802100F061F84FF44061036823
:1025200043F0040303600222006800F004000590F9
:1025300005983D4800F056F84FF0006169604FF48F
:10254000806129610022394828604FF40031AA6077
:10255000EA606A61AA61EA6129626A62284601F05A
:1025600035FF08B1FFF74EF9A563AC6300220421E3
:10257000272001F087F927202CE0264A91422BD111
:1025800000210591426942F0200242610022416926
:1025900001F0200100F022F84FF48441036843F079
:1025A000400303600222006800F040000590059897
:1025B0001F480091019200210291032208210491F9
:1025C00003926946FFF79AF900220521472001F09E
:1025D00059F9472001F073F907B030BD059105990D
:1025E0000592704700910192002102910322072178
:1025F000049103926946FFF781B900007819002021
:1026000000100140BC19002000480040A0860100D5
:10261000001A00200014014030380240000402403B
:1026200000000240C0140020000802402860024060
:102630000018024080B50F480F49016002F0CCFB42
:1026400018B1BDE80140FFF7DDB801BD81B00068F9
:10265000094988420BD1002208480092016841F4E0
:1026600080510160006800F480500090009801B033
:1026700070470000301B002000300240303802401C
:1026800080B50F480F49016002F0B6FB18B1BDE8F4
:102690000140FFF7B7B801BD81B000680949884221
:1026A0000BD1002208480092016841F0400101600E
:1026B000006800F040000090009801B070470000F2
:1026C000181B0020000806503438024080B5174817
:1026D0001749016000227C2340F67F4142608360FD
:1026E000C16002614261826102F0A0FB18B1BDE8E5
:1026F0000140FFF787B801BD1FB504461022002135
:102700006846FFF781F82168094A91420CD10223FB
:10271000084900930391684602F018FC08B1FFF7DE
:1027200071F80549012008601FBD0000C41A00208F
:102730000028004000031E003C0E474210B58AB03E
:1027400001200021089006910790009101910291CB
:1027500003910591049169460D4C204601F0F0FA71
:10276000204601F056FB0221204601F07AFC0E21A2
:10277000099105916946074C204601F0E1FA20468F
:1027800001F047FB0221204601F06BFC0AB010BDAE
:10279000741A00209C1A0020064807490068074A5E
:1027A0004FF47A73B0FBF2F2B0FBF3F00A704860BA
:1027B0007047000008010020281B002040420F0045
:1027C00030B5324B1B685C6944F040045C61DC68E6
:1027D00044F01004DC602E4B1B681C686408640025
:1027E0001C6003E01D686D086D001D601C68E50736
:1027F000F8D4284C9C60D86019615A60186840F47D
:1028000080201860196841F00101196030BD22482C
:1028100000F1400124221C30D2E738B51B48016882
:102820000A68900604D50022009200F03BF831BD02
:102830001A4A1368D80627D5002200924FF6EE7286
:1028400000F030F812490868036813491C03036854
:102850000BD400F034F8056845F40025056000F05D
:1028600027F811D101F11C000BE000F028F80C4C06
:10287000256825F40025256000F01AF804D101F13F
:102880004000BDE8344022E031BD0000BC1900200A
:10289000C014002004480040D8090020004800402F
:1028A000286002400B6800934968009100987047C7
:1028B0009BB2046844F001049342046070475B08D3
:1028C0005B0003602424436844605B427047002837
:1028D00000D17047F0B5002971D00678427846EAF9
:1028E0000226C6F30A060E80B61D45788278ED08EA
:1028F00045EA4215C5F30A054D808278C37804790C
:10290000920942EA830242EA8422C2F30A028A80DE
:10291000037944795B0843EAC413C3F30A03CB8009
:10292000047C477C44EA07240E2E3CBF00260E8020
:102930002E46AD1D0E2D38BF0026951D0E2D38BF1D
:1029400000229D1D0E2D38BF0023A2F580620D8848
:10295000A5F580670F808A80A6F58066A4F5806261
:10296000A3F580630A814E80CB804279C2F30112C5
:10297000CA72427992098A72C379827942EA032241
:10298000A1F80F20437A027A42EA0322A1F811202B
:10299000C37A827A42EA0322A1F81320027B4A75A5
:1029A000437B8B75827BC37B42EA0322A1F817200D
:1029B000437C027C1B02A3F5806002438A81F0BD48
:1029C00030B523482349244A244C254D01604260F8
:1029D00041F2C43223498160C28141F2D651018261
:1029E00041F23422428200F17C0144F620620A80E6
:1029F0004A808A80CA800023B0F90E208381C0E912
:102A00001245C0E9144500EE102A4FF4FA528A83A9
:102A100000EE903AB8EEC00AF8EEE00A40F6C413B1
:102A2000114A81ED040AC1ED020A4B830A830F4D5E
:102A30000F4901674FF42F62C0E9164582824FF4B7
:102A4000AF5396214FF4A562C3820183428330BD08
:102A5000400A00209B38593EB81E053E7B14AE4705
:102A6000E17A843F0000984148F4FFFFE17A743F27
:102A70000000404010B5DFF8EC0200F1980400219E
:102A800001220223417002708270B2EE040ADFED6F
:102A90008E0AB6EE001AF1EE041A61702270A3706D
:102AA00080ED080AC0ED090A80ED0A1AC0ED171A78
:102AB00084ED080AC4ED090A84ED0A1AC4ED171A58
:102AC00000F021F82046BDE810401CE038B504466F
:102AD00000F096F8FFE704F15805204695ED0F0A3F
:102AE000BDEEC00A10EE101A09B200F027F8204619
:102AF000D5ED000ABDE83440FDEEE00A10EE901A74
:102B000009B202F049BB8288017840F2FF1341B953
:102B100081780429D4BF4FF400721A4601F5007180
:102B200009E0012908D181780429D4BF1A4640F26E
:102B3000FF2201F50171C18082807047B0F9082041
:102B4000D0ED120A90ED081AD0ED091A90ED0A2A7C
:102B5000891A00EE101AB8EEC00A70EE800A21EE53
:102B6000001A61EEA01AC0ED120A80ED131AC0ED32
:102B7000141A80ED100AD0ED110A80ED110A70EEE2
:102B8000600A017860EE820A31EE210A012930EEF6
:102B9000200A0CD19FED651AB4EE410AF1EE10FA4D
:102BA000A8BF9FED630A16DA9FED621A0CE091B997
:102BB0009FED611AB4EE410AF1EE10FAA8BF9FED45
:102BC0005F0A08DA9FED5E1AB4EE410AF1EE10FAE0
:102BD00048BFB0EE410A90ED0D1AB4EE401AF1EE86
:102BE00010FAA1BFB1EE411AB4EE410AF1EE10FAAB
:102BF0009FED540A80ED160AC0ED150A70470000DB
:102C000042F2010301E0A1F500510AB29A42FADA58
:102C1000002A48BF01F50051428A09B2891A00EE24
:102C2000101AB8EEC00ADFED480AB4EE600AF1EE01
:102C300010FAA4BF9FED451A30EE010ADFED440AF9
:102C4000B4EE600AF1EE10FA44BF9FED421A30EE86
:102C5000010A00F1840180ED1F0AD1ED000A70EE37
:102C6000800AC1ED000A90ED171A21EE001A81EDDD
:102C7000011AD0ED181A61EEA01AC1ED021AD0EDBA
:102C8000200A90ED192A80ED200A70EE600A60EEAD
:102C9000820A31EE210A30EE200A90ED1C1AB4EEC1
:102CA000401AF1EE10FAA1BFB1EE411AB4EE410A9A
:102CB000F1EE10FA9FED230A00E0000081ED040A16
:102CC000C1ED030A704700006F12833A2648418A1B
:102CD000D0ED261A00EE901AF8EE600A9FED1E1A4B
:102CE0009FED1E0A80EE811A61EE000A30EEE11AB5
:102CF000B5EE401AF1EE10FAC8BF9FED190A31EE99
:102D0000000AF0EEC01AB0EEC12AF4EE421AF1EE5B
:102D100010FA48BFB0EE401A90ED070AC0ED260A3F
:102D200030EE010A80ED070A7047000001007A4585
:102D300000007A4500007AC501401C4600401C4650
:102D400000401CC60000000001008045000000C6D5
:102D5000000080C50000004600E0FC450000B443D0
:102D60000000B4C3E80700208C0B002000E0000046
:102D700070B5DFF86042E56A266B94ED111AD4ED68
:102D80000F0A656300EE105AB8EEC00A40EE010A61
:102D9000A6639FED8F0A00F07EF800EE906A84ED46
:102DA000040AB8EEE01A94ED120AD4ED100A41EECE
:102DB000000A9FED870A00F070F884ED050A94ED93
:102DC000040AB5EE400AF1EE10FA1CBF012020659E
:102DD000D4ED060A94ED071AF8EEE00A30EE800A08
:102DE000BDEEC00A84ED080AB8EEC11A94ED050ADA
:102DF00031EE000ABDEEC00AED1C84ED090A072D74
:102E00003CBFF61C072E09D2206D012806D1606D4B
:102E1000034602460146FEF726FC05E00023002299
:102E200000210020FEF71FFC94ED060AD4ED040AF1
:102E3000694B00F029F810EE900A94ED070AD4EDE2
:102E4000050A00F021F810EE901A9842A8BF184623
:102E5000624B61629842D8BF184620626048814246
:102E600002DA6048814200DC6062E06C58B9216A95
:102E70005D4809B2FFF72AFE616A5C48BDE8704010
:102E800009B2FFF723BE70BDB8EEC00A70EE200A8B
:102E9000FDEEE00A7047564800E0564890ED042ADF
:102EA000D0ED052A90ED063A70EE600A90ED0A0A20
:102EB000C0ED070A30EE201A90ED080A80ED090AED
:102EC00070EEC01A22EE202A62EE812A23EE213A09
:102ED00032EE220A30EE030AC0ED080A80ED000A45
:102EE00080ED033AC0ED022A80ED012AC0ED0B1AF5
:102EF00080ED0A1A7047000038B5364C217B6054CB
:102F0000491C2078612809D1C8B20A2801DC217344
:102F100031BDA07AA56A622803D0A5620020207383
:102F200031BD6078302808BF00250ED0312808BF99
:102F300001250AD0322808BF022506D0332808BF51
:102F4000032502D0342808BF0425A56200F002F84A
:102F5000E3E70000F0B51F482749C578274A8D618F
:102F60000A2306790E62642447798F625E4314FB5C
:102F700005657D1986785519302E08BF6D42C679D2
:102F8000CE61077A4F6213FB07F390F809C0C1F8CE
:102F90002CC014FB06336344D2188379302B08BF4E
:102FA0005242836A012B02D1C56202630DE0022BFB
:102FB00002D18D66CA6608E0032B02D10D674A670D
:102FC00003E0042B04BF8D67CA670D664A66F0BD37
:102FD000000000000C010020ACF4FFFF08EEFFFF32
:102FE000B8F2FFFF60F0FFFFE80700208008002034
:102FF00064010020940100208013002030EBFFFFCB
:1030000038B5044602F000FA14F1010F054602D06B
:1030100004480178641802F0F7F9401BA042FAD383
:1030200031BD00BFFC000020002202F0F3B9000017
:103030002DE9F843040016D02078DFF80063C107BB
:1030400013D5B06800F00C00042807D0B06800F079
:103050000C0008283DD1706841023AD530688103E0
:1030600003D56068002800F064812078B44F8107A0
:1030700019D5B06810F00C0F07D0B06800F00C0044
:1030800008285BD17068410258D43068810703D5A5
:10309000E068012840F04D813168206921F0F80195
:1030A00041EAC00131602178080779D56069A549F6
:1030B000002868D001220A6002F0A6F90546706F68
:1030C00081076DD402F0A0F9401B0228F7D9032034
:1030D00032E16068B0F5803F04D1306840F4803060
:1030E000306011E0B0F5A02F306806D140F48020A8
:1030F0003060316841F4803105E020F48030306088
:10310000316821F480213160606858B102F07CF9A7
:10311000054630688103A8D402F076F9401B652883
:10312000F7D3D4E702F070F90546306881039CD5E7
:1031300002F06AF9401B6528F7D3C8E7E068A8B138
:103140000121396002F060F905463068810705D435
:1031500002F05AF9401B0228F7D9B8E73068216914
:1031600020F0F80040EAC10030609CE7386002F0CF
:103170004BF905463168880795D502F045F9401BA3
:103180000228F7D9A3E7086002F03EF90546706F00
:10319000810705D502F038F9401B0228F7D996E7D8
:1031A0002078410760D5306C0025C1000BD4002089
:1031B00000900125316C41F080513164306C00F099
:1031C000805000900098DFF88081D8F80000C10599
:1031D00013D4D8F8000040F48070C8F8000002F062
:1031E00013F98146D8F80000C10506D402F00CF9A5
:1031F000A0EB09000228F5D969E7A068012805D0ED
:103200000528306F06D140F004003067306F40F081
:10321000010005E0400840003067306F20F00400F6
:10322000306741F28938A06860B102F0EDF881465C
:10323000306F810713D402F0E7F8A0EB0900404596
:10324000F6D344E702F0E0F88146306F810706D5F7
:1032500002F0DAF8A0EB09004045F6D337E71DB1DC
:10326000306C20F080503064A069002863D0B168D1
:1032700001F00C0108293AD002282AD10020386632
:1032800002F0C2F805463068810105D502F0BCF8AD
:10329000401B0228F7D91AE7E069216A626A0843ED
:1032A000A16A490840EA8210491E40EA0140E16AE9
:1032B00040EA016070600120386602F0A5F804461B
:1032C0003068810137D402F09FF8001B0228F7D93B
:1032D000FDE60020386602F097F804463068810168
:1032E00029D502F091F8001B0228F7D9EFE6012852
:1032F0001FD07068E26900F48001914202BF00F0C3
:103300003F01226A914201BF47F6C0710140626AE3
:10331000B1EB821F0DD1A26A520800F44031521E57
:10332000B1EB024F02BF00F07060E16AB0EB016FD9
:1033300001D0012000E00020BDE8F2830038024007
:1033400000004742800E4742007000402DE9F041E6
:1033500004000F4654D04B4E306800F00700B842CE
:1033600002D200F073F84BD12068474D810712D587
:10337000400703D5A96841F4E051A960207801070E
:1033800003D5A86840F46040A860A968A06821F04F
:10339000F0010143A9602178C80729D56068012898
:1033A00002D129688A0305E0022818BF032803D147
:1033B00029688A0103D423E029688A0720D5A968EF
:1033C000890840EA8100A86002F01EF88046A868DB
:1033D000616800F00C00B0EB810F09D002F014F826
:1033E000A0EB080041F289318842F0D303202BE0A2
:1033F000306800F00700874204D200F027F801D0BF
:10340000012021E02078410705D5AA68E06822F470
:10341000E0520243AA602178080706D5A96820690E
:1034200021F4604141EAC001A96002F00DF8AA68E8
:103430001649174BC2F30312895CC840186015483F
:10344000006800F067FA0020BDE8F081377031684D
:1034500001F00701B94270470D48006870470C48F9
:103460000D4A006813680D49C3F3822206E008483C
:10347000094A006813680949C3F34232895CC840AD
:1034800070470000003C024000380240EC72000827
:103490000801002004010020083802407074000870
:1034A0004018491C1CBFB1F1010100F8012DF9D1F0
:1034B0007047000010B51028DFF838430BD1092001
:1034C00001F0F2FF607840F001006070A07840F0F9
:1034D0000100A07008E020280BD1082001F0E4FFD3
:1034E000217841F001012170207910B3BDE810402E
:1034F00020E0082807D10A2001F0D6FFE07840F04C
:103500000100E07010BD012813D102F0A5F80128D8
:103510000FD0206D04F1540102F0B8F8606D40B195
:10352000DFF8D8024FF080510160BFF34F8FBFF337
:103530006F8F10BD38B5DFF8BC42DFF8BC122078C1
:10354000C20723D5886C02681368D8071ED4CA6CDA
:1035500010680368DA0719D46078820716D4A07857
:10356000820713D4207800F0FE0020700022237818
:10357000DFF88C0243F0020323700121FEF7A9FA61
:10358000082204F1580104F160004AE06278DFF893
:103590007402D30721D58A6C13681D68EA071CD40E
:1035A000CB6C1A681568EB0717D42278930714D4EC
:1035B000A278930711D4617801F0FE0161700022B6
:1035C000617841F0020161701021FEF782FA092250
:1035D00004F1680104F1740023E0A278D30724D534
:1035E0008A6C13681D68EA071FD4C96C0A681368DF
:1035F000D9071AD42278910717D46278910714D486
:10360000A27802F0FE02A2700022A17841F002012D
:10361000A1701021FEF75DFA042204F1800104F18B
:103620008400BDE83840FCF7AFBD31BD2DE9F84F4F
:103630007148DFF8D4B1C16C744D0F68DFF8D0C1A8
:10364000744EDFF8D4E1DFF8D481DFF8D491DFF8ED
:10365000D4A15F454FF000604FF400114FF40062B9
:103660000ED37468574508BF202307D04F4508BFC5
:10367000134603D047450CBF0B460346234036E0B4
:1036800077450FD33368674508BF20242ED0664C9A
:10369000A74208BF144629D0644CA74214BF044671
:1036A0000C4623E0624B9F4210D36B68614CA742EB
:1036B00008BF20241AD0604CA74208BF144615D07A
:1036C0005E4CA74214BF04460C460FE02B685C4CCE
:1036D000A74208BF202409D05A4CA74208BF14466D
:1036E00004D0594CA7420CBF0C4604462340002B83
:1036F0007DD05F450CD3574508BF202006D04F45ED
:1037000008BF104602D0474508BF0846F06032E0C7
:1037100077450ED3674508BF202008D0424B9F4213
:1037200008BF104603D0414A974208BF0846B06020
:1037300021E03F4B9F420FD33E4CA74208BF2020C1
:1037400008D03D4B9F4208BF104603D03B4A9742EA
:1037500008BF0846E8600EE0394B9F4208BF2020B2
:1037600008D0384B9F4208BF104603D0364A9742D4
:1037700008BF0846A8601F4C207881070CD5207828
:1037800000F0FD002070012223781D4843F004035F
:1037900023700121FEF79DF960781A4D81070CD541
:1037A000607800F0FD0060700122607840F0040055
:1037B000607010212846FEF78CF9A07881070CD59F
:1037C000A07800F0FD00A0700122A07840F0040075
:1037D000A07010212846FEF77CF9FFF7ABFE207899
:1037E000410704D51948026842F001020260BDE8B1
:1037F000F18F000000000020E015002004ED00E043
:10380000000402400000024059640240006002408F
:103810001064024000640240B9600240A0640240AB
:1038200088640240706402402864024040640240A0
:10383000596002407060024088600240A06002400F
:10384000106002402860024040600240103C01408D
:103850000901020002D4294881547047284B02F024
:103860000F021A4402F8041C7047264B19684FF6E1
:10387000FF020002114000F4E060084322490843BF
:103880001860704770B51F4B1C68C4F302230124F5
:10389000C3F10705052D2EBF0F2504FA05F56D1E92
:1038A0001E1D072E34BF0023DB1E2940994004FA59
:1038B00003F3BDE870405B1E1A401143C8E70100E6
:1038C00007D4012200F01F01104B8A40400943F841
:1038D0002020704710B5401EB0F1807F01D3012039
:1038E00010BD0B4C60600F214FF0FF30FFF7B0FFB1
:1038F0000021A16007202060002010BD00E400E04E
:1039000018ED00E00CED00E00000FA0500E100E039
:1039100010E000E038B50D4D0D4B2A7804464FF409
:103920007A711868B1FBF2F2B0FBF2F0FFF7D2FF48
:1039300050B9102C08D2002221464FF0FF30FFF77B
:10394000A1FFAC60002032BD012032BDFC00002090
:103950000801002082B00020009000220C4841683D
:1039600041F480414160416801F480410091009937
:1039700000920F21036843F080530360006800F059
:103980008050009000986FF0010002B0FFF77ABFFE
:103990004038024070B5044600250CB9012070BDC6
:1039A00004F13006306928B92046FEF75AFA0020A3
:1039B000706130733069C10600F192803069DFF8C0
:1039C000741220F4885040F002003061086820F43E
:1039D000403008600A68606802430A6020684168F5
:1039E00021F48071416020684168226941EA022126
:1039F00041602068416821F04071416021684A6857
:103A0000A06802434A602068816821F400618160F7
:103A100021688A68E06802438A602068A16ADFF84A
:103A200018229142816821F0706181600CD0216878
:103A30008A68A06A02438A6000F05BF821688A689D
:103A4000E06A02438A6001E000F053F82068816870
:103A500021F0020100F049F8227E41EA4201816032
:103A600094F820002168002848680FD040F40060D6
:103A700048602068416821F46041416020684168E5
:103A8000626A521E41EA4231416002E020F4006065
:103A900048602068C16A21F47001C1622068C16A6F
:103AA000E269521E41EA0251C1622068816821F434
:103AB000007100F01AF8327841EA422100F015F85E
:103AC00021F4806100F011F8626941EA822181608D
:103AD000002070610120316960F30101316100E073
:103AE000012500203073284670BD81602068816800
:103AF00070472068816821F040518160704778B537
:103B000002460020009092F83C30012B01D10220A7
:103B100072BD012082F83C0007240B6810680A2B54
:103B200012D30A3BC56803EB43039C4025EA040417
:103B3000C460C3680D688C68A5F10A0606EB4606EA
:103B4000B4402343C3600FE0056903EB430304FA69
:103B500003F325EA0303036103690D688C6805EB31
:103B60004505AC40234303611F244B68072B0CD24F
:103B70005B1E456B00F050F84463436B4D680C8846
:103B80006E1E00F044F843631BE00D2B0CD2DB1FCC
:103B9000056B00F041F80463036B4D680C88EE1F61
:103BA00000F035F803630CE00D3BC56A00F034F813
:103BB000C462C36A4D680C88A5F10D0600F027F8B1
:103BC000C3621E4B98421DD10C681A48122C03D1B7
:103BD000036843F4800303600B68102B18BF112B9C
:103BE00010D1036843F4000303600868102809D16A
:103BF0001449134C0B68B3FBF4F40A2044430094BB
:103C000000F010F8002182F83C10002072BD06EB95
:103C10008606B4402343704703EB83039C4025EAA8
:103C20000404704702E00098401E009000980028AD
:103C3000F9D17047042301400100000F002001402A
:103C400040420F000801002038B5040022D094F84B
:103C5000200010B92046FEF775F900F00FF905466F
:103C600020684168C80705D401F0CEFB401B0B2833
:103C7000F6D30DE000F0FBF801F0C6FB0546206826
:103C80004168880708D501F0BFFB401B0B28F6D31D
:103C900000F0E5F8012032BD207E012806D1216820
:103CA00008680A4640F08000106005E0206801685E
:103CB000024621F080011160607E00F03DF80CBFEB
:103CC00041F0400121F040010160A07E00F034F895
:103CD0000CBF41F0200121F020010160E07E00F0E6
:103CE0002BF80CBF21F0100141F010010160207F82
:103CF00000F022F80CBF41F0080121F0080101603A
:103D0000607F00F019F80CBF41F0040121F00401BC
:103D10000160A268E0682169024360690A43616842
:103D200002432068491E0A43C261002161620120EA
:103D300084F82000002032BD012820680168704707
:103D4000F0B590F82020012A18BF022A54D14F4A1A
:103D5000106840F001001060136823F47C53136076
:103D600010684B6A40EA0320106001200B7D03F0CD
:103D70001F0300FA03F3D069DC432040D0614448BC
:103D800000F5117500F51076C86958B9D068204063
:103D9000D060CF6800F034F80F68C7EA004C48697B
:103DA00045F830C0C86901280BD1D0681843D060ED
:103DB0000F6800F025F8CE684F69C6EA004045F864
:103DC00037008869002850680CBF204018435060B5
:103DD00008690028506907BF0440546118435061C6
:103DE000086A012802D1D0690343D3610020116819
:103DF000490849001160F0BD416A41F48021ABE0FF
:103E00004868D1F814C0C0EA074746F83C70886893
:103E1000704738B5044694F82000012819D10221D2
:103E200084F820102068026852085200026001F0F5
:103E3000EBFA054620684168C80707D501F0E4FAA7
:103E4000401B0B28F6D300F00AF806E00020606261
:103E500032BD606A40F400206062012032BD606AB9
:103E600040F400306062052184F82010704720681B
:103E70000168024621F00201116070472068016864
:103E800041F00101016001F0BFBA0000006600408E
:103E900000640040F0B590F820400568AD68012C42
:103EA00018BF022C55D115F0E05F4ED0C5F3016468
:103EB000032C03D3416A41F400014DE00125A540E4
:103EC0001D6024010368CE6803F5C0758B681BB9BB
:103ED0000B6846EA435603E04F6843EAC7031E43B4
:103EE0002E5105680B6905F5C2763351097D01290C
:103EF00006D1036803F5C2710D5945F480750D5163
:103F00009379D17955791B0443EA0163117943EA26
:103F10000523056825440B43C5F88C319378D17887
:103F200055781B0443EA01631178026843EA0523CC
:103F300022440B43C2F88831006800F5C070015973
:103F400041F0010101510020F0BD416A41F400112E
:103F500002E0416A41F4802141620120F0BD416AE2
:103F600041F48021416201207047F0B590F8204073
:103F7000012C18BF022C66D10029046801D1E56824
:103F800000E0256915F0030F03D1416A41F40011E7
:103F90005CE00D0104F5D876745914F004049460C3
:103FA000066806F5D87603D17459640D146002E0F2
:103FB0007659F6085660046804F5D876775907F004
:103FC0000207D76000F043F806F00F06166100F014
:103FD0003EF8C6F30724946100F039F8360C5661B8
:103FE00002682A44D2F8B8411C7006682E44D6F8FC
:103FF000B821120A5A7004682C44D4F8B821120C63
:104000009A7004682C44D4F8B821120EDA7000F0CB
:1040100023F81A7100F020F8120A5A7100F01CF807
:10402000120C9A7100F018F8120EDA71006821B9BA
:10403000C16841F02001C16003E0016941F0200145
:1040400001610020F0BD416A41F4802184E70468E9
:104050002C44D4F8B461704704682C44D4F8BC21D3
:10406000704790F82020012A18BF022A03D1006867
:104070004269114300E072E74161002070472DE979
:10408000F84F05464FF0000828684669D0F804B09C
:104090008468D0F80C90D0F810A08769F10745D556
:1040A000E20713D501218160A00703D5284601F05E
:1040B0002DFB0BE0600748BF4FF4006806D42007D3
:1040C0004EBF4FF48058284601F021FBE00515D57E
:1040D0002A684FF48071A005916003D5284601F04D
:1040E00017FB0BE0600548BF48F4005806D42005D4
:1040F0004EBF48F48048284601F00BFBE00315D57D
:104100002A684FF48031A003916003D5284601F05E
:1041100001FB0BE0600348BF48F4004806D42003CD
:104120004EBF48F48038284601F0F5FA300748BF02
:104130005FEAC96104D52968102048F40078C86096
:10414000700748BF5FEA097105D508202A68D0606A
:10415000284601F0E1FAB00707D52968C86810F0D1
:10416000030F1CBF284600F089FF700648BF5FEAB6
:10417000CA6104D52968102048F480680861B00637
:1041800048BF5FEA0A7105D508202A6810612846F1
:1041900001F0C3FAF00607D52968086910F0030F8B
:1041A0001CBF284601F0BAFAB00348BF5FEACB61F2
:1041B00005D52A6810205060284601F0B0FAF003B7
:1041C00048BF5FEA0B7105D52A6808205060284671
:1041D00001F0A6FA300440D55FEA4B713AD5F005FC
:1041E00003D5F90748BF48F00108B00503D5B90762
:1041F00048BF48F00208700503D5790748BF48F06A
:104200000408300526D517F0700F23D007F070078B
:10421000102F0CD0202F0DD0302F0ED0402F0FD0CC
:10422000502F10D0602F08BF48F480780DE048F080
:1042300008080AE048F0100807E048F0200804E009
:1042400048F0400801E048F080082868816921F0C2
:1042500070018161042029684860B8F1000F09D01D
:10426000686A48EA0008C5F824802846BDE8F24F8D
:1042700001F057BABDE8F18FF8B5040025D004F17C
:104280003C05697821B9002028702046FDF70DFF14
:104290002421697020680268520852000260206878
:1042A000016841F4004101602068026822F4004284
:1042B0000260FFF7D4F801466068DFF8F82090420A
:1042C00005D2DFF8F430994205D20120F2BDDFF8C3
:1042D000EC008142F9D32068DFF8E4304668B1FB96
:1042E000F3F3B60943EA861646602668376A6068C3
:1042F000904206D34FF4967043434FF47A70B3FB69
:10430000F0F35B1CBF0943EA87133362491E23683D
:10431000DE696768974206D27F0000F044F80429FE
:1043200013D2042111E0A06820B907EB470700F081
:104330003AF805E01920474300F035F841F4804190
:1043400008050CBF012141F40041DFF87800064068
:104350000E43DE6122681368E169206A23F0C0031E
:104360000B43034313602268DFF85C009368216904
:104370000340E0680B43034393602168CA68A36964
:104380006069120A034343EA0222CA602068016896
:1043900041F0010101600020686020216970206304
:1043A0000021A970F2BDB1FBF7F1491CC1F30B016B
:1043B00070470000A186010080841E0000093D00B6
:1043C00040420F000030FFFF007CFFFF70B5044645
:1043D00001F01AF806460CB9012070BD04F134054D
:1043E000022068700021297020680268520852007B
:1043F000026022681068C1070AD501F005F8801B29
:104400000628F6D32020286203216970032070BD9E
:104410001368DFF8CC0261680340A0680B43E168D1
:10442000034320690B4361690343A0690B43E169BE
:104430000343206A0B43616A0343042903D1E16A01
:10444000206B0B430343136023685A69606AD208E8
:10445000042840EAC2020AD1A66AE16A324331B1B5
:10446000A06988B9002E18BF022E1FD016D35A613A
:10447000204600F051F9A96A3F228A40826000205C
:1044800028620121697070BDB0F5005F0AD1032E6A
:10449000EDD8DFE806F00D0B0D03E8E7B1F1C07FC2
:1044A000E5D105E0022E03D9F61EE0D1C801DED524
:1044B000402129620120687070BDF8B5044604F1FE
:1044C00034056E6A00F0A0FF07466878022805D020
:1044D00080212962002028700120F2BD2068016837
:1044E00021F01601016000F004F9E868002804BF1B
:1044F0006869002801D000F008F900F000F9206890
:104500000168CA070CD500F07FFFC01B0628F6D350
:104510002020286203216970002028700320F2BD4A
:10452000A86A3F218140B160002001216970287094
:10453000F2BD90F83510022903D080224265012097
:104540007047052180F83510006802685208520053
:104550000260002070472DE9FC41044604F1340656
:104560000020604900904FF41650776A0A683D6851
:10457000B2FBF0F8B06A082100F0B7F80ED020685E
:10458000026853070AD5026822F004020260B06A8A
:104590008140B960316A41F001013162B06A25FAA7
:1045A00000F1CA070BD521684A69110607D5012217
:1045B00002FA00F0B860306A40F002003062042174
:1045C00000F092F808D021680A68930704D5B86013
:1045D000306A40F004003062102100F085F81BD0F2
:1045E00021680A68130717D5B860206801684A0374
:1045F00007D5006801030BD5716969B1204688476A
:104600000AE00168CA0503D4016821F008010160CD
:10461000F16809B120468847B06A202100F065F8AA
:104620003FD021680A68D3063BD5B860206871780E
:1046300005291CD1026822F01602026000F059F828
:10464000F068002804BF7069002801D000F05DF810
:104650003F22B06A8240BA60012171700020F16986
:104660003070002939D02046BDE8FC410847016878
:104670004A0307D5006801030FD4316989B1204688
:1046800088470EE00168CA0507D4016821F01001CF
:1046900001600120707000213170B16809B12046BD
:1046A0008847306AC8B1306AC10710D505207070DC
:1046B00000F025F80098401C8045009003D3206846
:1046C0000168CA07F6D40120707000213170B16909
:1046D00019B12046BDE8FC410847BDE8F381000060
:1046E0003F8010F008010020B06A01FA00F0054296
:1046F00070472068416921F080014161704720685E
:10470000016849084900016070472068016821F08C
:10471000080101607047000030B5014618230868A1
:1047200007A400F0FF02103AB2FBF3F2800AA55C86
:10473000CD658002042A28BF001D886530BD0000B9
:10474000000610160006101638B5040001D101202D
:1047500032BD606A30B96068B0F5827F05D0002153
:10476000E16102E00020206160610020A06204F1AC
:104770005005687820B9002129702046FDF785FD95
:104780000220687000F03BF86068A168E26800F4FD
:10479000827001F404410843217C02F4006210435A
:1047A000227D01F002010843A16902F001021043D9
:1047B000227F01F40071084394F8201002F03802BF
:1047C0001043A26A01F080010843216802F40052FC
:1047D00010430860A06994F824102268000C00F0CF
:1047E000040001F01001084350602068C16921F401
:1047F0000061C161002068600121697032BD2068DC
:10480000016821F0400101607047000038B50400E4
:1048100001D1012032BD00F019F808B900F01AF8F2
:1048200000F01DF800F025F8FFE7416100F001F805
:1048300032BD2068C16841F40051C1600020686049
:10484000202169702020A8700020704704F13C05E9
:1048500068787047002129702046FDF708BE2420A3
:1048600068702068C16821F40051C160204600F0E2
:104870004EBA2068016921F49041016120684169C4
:1048800021F02A01704738B500F130039C7B202CC1
:104890000FD109B1140001D1012032BD1C7B012CC4
:1048A00007D001241C7300251D60BDE8384000F0CE
:1048B00070B9022032BD45E80030002870472168F9
:1048C00001F1140252E8001F206800F1140321F0E6
:1048D000400143E8001000287047F8B504462568F9
:1048E0002A6828460146C6684B6912F00F0F02F08D
:1048F000200106F0200007D1002918BF00285DD054
:104900002046BDE8F24097E1DF0702D416F4907F1D
:1049100054D0D50705D5F60503D5256C45F001051E
:104920002564550705D5DE0703D5256C45F002053E
:104930002564950705D5DE0703D5256C45F00405EC
:104940002564120706D508B9DA0703D5236C43F0AE
:1049500008032364226C002A2FD000291EBF0028E0
:10496000204600F069F920684069216C0A0701D4EB
:1049700040061DD5204600F033F9206841694806FD
:1049800011D5FFF79CFFFCD1A06B60B10FF299210C
:104990000165A06BFFF7CDFD00280ED0A06B016D67
:1049A000BDE8F44008472046BDE8F24000F0BABE3A
:1049B000204600F0B7FE00202064F1BD206B0128E6
:1049C00004F13D0340F08980D00600D5F10640F1A6
:1049D000848000220092296800912268506800902B
:1049E00000992068426950063DD5A16B086840686F
:1049F00080B20028E1D0A28D9042DEDAE085C8695D
:104A0000B0F5807F29D000F0A7F802F10C0521F461
:104A1000807145E800100028F5D100F0A4F849089D
:104A200000F11405490045E800100028F5D100F018
:104A30009AF800F1140521F0400145E80010002823
:104A4000F5D1202058700021216300F092F800F089
:104A50009AF8FAD1A06BFFF730FDA18DE08D091A0D
:104A600089B2204635E0A08DE18D411AE08D002805
:104A70001CBF88B200286ED02246106800F10C04DA
:104A800054E8004F00F10C0624F4907446E800400E
:104A90000028F2D1106800F1140454E8004F6408B3
:104AA00000F11406640046E800400028F2D12020FE
:104AB000587000231363106800F10C0353E8003FA3
:104AC00000F10C0523F01003FFF7F5FEF3D189B2D6
:104AD0001046BDE8F44000F026BE10062BD5310686
:104AE00029D51878212836D1A068B0F5805F04BF99
:104AF0002069002809D1206A01882A46C1F30801EB
:104B00005160206A811C216205E0206A411C2162FB
:104B1000226800785060E08C401EE08480B2D0B9FA
:104B20002068C16821F08001C1602068C16841F03F
:104B30004001C160F1BD50060DD571060BD5284668
:104B4000C16821F04001C160204620211970BDE8F4
:104B5000F24000F0E9BDF1BD216801F10C0050E820
:104B6000001F22687047206800F1140151E8001FFF
:104B70007047206800F10C0151E8001F00F10C03A0
:104B8000704702F10C0321F0100143E800100028E7
:104B9000704781628285C28500F13C0100224A6033
:104BA00022238B700A700168CB6843F48073CB605A
:104BB00001684A6942F001024A610068C16841F037
:104BC0002001C1600020704744E80021002970479F
:104BD000016801F10C0252E8002F01F10C0470474A
:104BE00010B5FFF7F5FF22F49072FFF7EDFFF8D153
:104BF00000F00BF8016B012901D100F073F82021BE
:104C000080F83E100022026310BD016801F1140219
:104C100052E8002F520801F11404520044E8002128
:104C20000029F2D170470000806B0021C18500226D
:104C3000C28400F077BD00001CB590F83E10222918
:104C40004ED18168826AB1F5805F0AD1016969B984
:104C500003685968C1F308011180826A911C81625E
:104C60000FE0002904BF0169002902D103685968D7
:104C700003E00168496801F07F011170816A4A1CF4
:104C80008262C18D491EC18589B239BB0168CA687B
:104C900022F02002CA600168CA6822F48072CA60E9
:104CA00001684A69520852004A6100F02AF813D19B
:104CB0000021016300F016F802681168CB0607D5E1
:104CC0000024009412680092036859680091009AC9
:104CD000818D00F028FD01E000F027FD002016BDC9
:104CE000022016BD026802F10C0151E8002F036892
:104CF00003F10C0422F0100244E800210029F1D154
:104D00007047202180F83E10026B012A704770B571
:104D1000044622681169E06821F4405101431161A1
:104D2000D3682748A168034020690B4361690343A6
:104D3000E0690B430343D3605169A06921F44071DA
:104D4000014351611F498A421CBF1F48824202D160
:104D5000FEF78DFB01E0FEF782FB62682568E469DF
:104D60001921B4F5004FA1FB00016FF0630612D1C9
:104D7000D30F520000F0DAFC00F028F8F6003236CB
:104D80006420B6FBF0F0420002F4F87202EB01126C
:104D900000F0070010E0930F920000F0C7FC00F055
:104DA00015F8360132366420B6FBF0F000F0F00260
:104DB00002EB011200F00F008018A86070BD000027
:104DC000F369FFFF00100140001401406421B0FBB3
:104DD000F1F106FB0106704710B5040001D1012076
:104DE00010BD607920B9002121712046FDF72EFC0D
:104DF00001206071002010BD10B5040001D1012018
:104E000010BD607920B9002121712046FDF744FCD6
:104E1000022060712068016841F0040101600120F6
:104E200060710021A160002010BD000038B50400B1
:104E300031D0607F20B9002121772046FDF75CFC4E
:104E400000F03BF853202168486200F047F8FF2546
:104E5000E8B92168DFF888008A6802408A60226821
:104E6000936860682169034360690B43034393605F
:104E70002068E168016120680169A26841EA024195
:104E8000016100F020F808D400F026F828B120686D
:104E9000456204216177012032BD2068016C21F454
:104EA0008021016421680A6CA06902430A64012020
:104EB00021684D626077002032BD02206077CA21F0
:104EC0002268516270472068C16821F08001C1608A
:104ED0002068816888067047204603E020461AE073
:104EE000BFFF8FFF38B504462068C16821F0A001DC
:104EF000C16000F089FA05462068C168880608D4B8
:104F000000F082FA401B40F2E9318842F4D30320DA
:104F100032BD002032BD38B504462068C1684A065B
:104F200012D44FF0FF31C16000F06EFA05462068E0
:104F3000C168480608D400F067FA401B40F2E93126
:104F40008842F4D3032032BD002032BDF8B50546B7
:104F5000444C287810F0050F20D0434E00203060DC
:104F600000F052FA07462168080106D500F04CFA15
:104F7000C01B0228F7D90320F2BDA968686800F0B9
:104F800069F8326000F040FA06462068010105D455
:104F900000F03AFA801B0228F7D9ECE7287881075D
:104FA00056D500200090216C304F41F08051216493
:104FB000206C00F0805000900098396841F48071B6
:104FC000396000F021FA06463868C10505D400F0C2
:104FD0001BFA801B0228F7D9CDE7206F10F4407030
:104FE0001EBFE96801F44071884219D0206F204942
:104FF00001220A6000230B6020F440702067206FBC
:10500000C1070DD500F000FA0646206F810707D4CE
:1050100000F0FAF9801B41F289318842F5D3AAE702
:10502000E96801F44070B0F5407F07D1A2681148EB
:1050300022F4F81201401143A16003E0A06820F4BB
:10504000F810A060206FE968C1F30B0108432067E6
:105050000020F2BD090741EA8011074801600122E2
:10506000704700000038024068004742007000406E
:10507000400E4742FFFCFF0F8438024070B50446E3
:10508000DFF834632068DFF83453B04224D105F1EF
:105090001C032A460021DFF82803FEF766FF296873
:1050A00040F2FF40814205D105F11C0105F160008D
:1050B00000F047F9C34800F02EF8C34800F02BF881
:1050C000C24800F028F8C24800F025F8C14800F0B6
:1050D00022F8C14800F01FF82068C049884219D161
:1050E00005F13C032A460021BD48FEF73EFFBD48BE
:1050F00000F011F8BC4800F00EF8BC4800F00BF8C6
:10510000BB4800F008F8BB4800F005F8BDE8704067
:10511000B94800E070BD38B50446A84D607840B984
:105120002968E288914211D105F11C01204600F066
:105130000FF86078012802BF2968E088814205D114
:1051400005F13C012046BDE8344001E031BD0000DE
:10515000428A8282F1EE040A0B784A7842EA0322FC
:1051600042829FED941A8B78CA7842EA0322028128
:105170000B79497941EA032100EE101AB8EEC00A12
:1051800060EE200A20EE811A80ED031A01780029D2
:1051900008BFFDF79BBD70472DE9FE4304460D4651
:1051A0006078A188954E002840F2FF2840F2FF1950
:1051B0004CD1B71EB1F5007F11D1A07827F810505F
:1051C000B6F90610B6F9040001910090B6F9023064
:1051D000B6F900204FF40071002000F083F8A08899
:1051E00048451FD1207848B9A07827F81050B6F963
:1051F0000E10B6F90C00019100900BE001286FD160
:10520000B01DA17820F81150B6F90E00B6F90C10B7
:1052100001900091B6F90A30B6F9082049460020FD
:1052200000F060F8A08840455AD1B11DA07821F85F
:105230001050B6F91610B6F9140001910090B6F9A5
:105240001230B6F910204146002047E0B1F5007F4A
:1052500013D106F11600A17820F81150B6F91E00FE
:10526000B6F91C1001900091B6F91A30B6F9182061
:105270004FF40071012000F035F8A088484519D19D
:10528000207810B906F1160003E0012828D106F1B4
:105290001E00A17820F81150B6F92600B6F92410A6
:1052A00001900091B6F92230B6F92020494601203C
:1052B00000F018F8A088404512D106F11E01A07830
:1052C00021F81050B6F92E10B6F92C00019100907B
:1052D000B6F92A30B6F928204146012000F002F83C
:1052E000BDE8F783FEB50C464549BDF92060BDF920
:1052F00024500C601F1200248C60CC6008240C61C8
:105300008DF80330141233128DF800408DF80430FC
:105310008DF801202B1204008DF802708DF80560C5
:105320008DF806308DF8075003D102AB6A46244849
:1053300004E0012804D102AB6A462948FEF7AAFD21
:10534000F7BDF8B504460A78487840EA0220208084
:105350008A78CD7845EA022565800A794E7946EA51
:105360000226A6808A79CF7947EA0227E78000B231
:1053700000F060FA00F018F8C4E9020128B200F069
:1053800059FA00F011F8C4E9040130B200F052FA01
:1053900000F00AF8C4E9060138B200F04BFA00F058
:1053A00003F8C4E90801F1BD0022164B00F054BA1D
:1053B000000000000000803800640040F812002067
:1053C000741A0020580D0020F00D0020880E0020D7
:1053D000200F0020E807002080080020006800401F
:1053E0009C1A0020280C0020C00C0020B80F0020C0
:1053F00050100020E810002080110020441A0020E6
:10540000001B00200000594001484068704700BF61
:10541000FC00002000B500BF1300964694461039EA
:1054200028BFA0E80C50FAD85FEA417C28BF0CC026
:1054300048BF40F8042BC90728BF20F8022B48BFFB
:1054400000F8012B00BD000030B5144C606800F07E
:105450000C00042802D0082802D01DE0104830BDFE
:10546000226820680023410202F03F0204D525682B
:105470000B49C5F3881003E020680A49C0F388107F
:10548000A1FB000100F052F92168C1F30141491C60
:105490004900B0FBF1F030BD024830BD0438024095
:1054A000001BB7000024F40010B52421114A484322
:1054B00014182068606000F030F82060E07CC0F3D1
:1054C000801121B100F0BF00E0742068E060A069A5
:1054D00058B180470028E07C08D040F0A000E0747C
:1054E000206A30B1BDE810400047E07C00F07F004A
:1054F000E07410BDCC050020E26A786DDFF87831E9
:105500000121914008437865211D142042439818D9
:105510007047502181F311887047DFF8EC01006D6E
:1055200070472DE9F843DFF84C71386F00260028EA
:1055300053D13C6D641C3C6510D1F86A006820B101
:10554000FFF7E7FF00F04EF8FEE7F86A396BF96203
:105550003863786E401C786600F071F8F86EDFF8FA
:10556000289184424FF0140828D320E0F96AC868D3
:10557000C568686884422ED3281D00F09DFAA86A89
:1055800018B105F1180000F097FAE86A796D012268
:1055900082401143796508FB00F0291D484400F062
:1055A0007EFAE86AB96ACA6A904228BF0126F86A98
:1055B00000680028DAD14FF0FF31F966B86AC06A96
:1055C00008FB00F859F80810022928BF0126386E98
:1055D00030B1012604E0F866F0E7F86D401CF8658C
:1055E0004FE00860BFF34F8FBFF36F8F7047214AC2
:1055F000106F10B101211166704710661421506DB3
:10560000B0FA80F3C3F11F034B43DFF87C10C85896
:1056100038B9502181F31188BFF34F8FBFF36F8FDB
:10562000FEE7C81800F108034168496841609942E3
:1056300004BF496841604068C168916270470D4984
:10564000C86A006810B94FF0FF3203E0C86AC26848
:10565000D0684268CA667047DFF8AC10886D08B938
:1056600001207047086F08B902207047002070477A
:1056700000000000F00A002018120020201D00F099
:105680001BBA3046BDE8F28318120020F8B5044674
:105690000D46502724B987F31188FFF7A3FFFEE7D3
:1056A00000F032FAEFF3118687F31188FFF79AFFC3
:1056B00094F85000022184F85010E26C521C01282A
:1056C000E2641DD1A06A20B187F31188FFF78AFF39
:1056D000FEE70D4F386F20B9FFF7D0FFFFF70CFF43
:1056E00002E004F11801384600F0D9F9B86AC16A3D
:1056F000E06A814204D20DB101202860012139669F
:1057000086F31188F1BD0000F00A00207047704751
:1057100070477047704770477047704770477047D1
:10572000704770477047704770477047D3BBD9B117
:10573000B2F5803F5BD2022A1ED98C46B1FBF2F152
:1057400002FB11C31B0443EA1043B3FBF2FC02FB50
:105750001C3380B240EA0343B3FBF2F002FB103289
:1057600040EA0C4000237047022A05D98446B0FB6A
:10577000F2F002FB10C270474AB105D100F00102FD
:1057800049085FEA3000704700220023704700F0AC
:10579000E5B90B000200002100207047F7D300227A
:1057A00000237047904271EB030CF2D370B5B1FA4D
:1057B00081F4B3FA83F52C1BA340C4F1200532FA1F
:1057C00005F63343A2405FF00046E64002E05B0886
:1057D0005FEA3202841A71EB030524BF2046294692
:1057E0007641F4D302000B003000002170BD70B58B
:1057F000B1FA81F4B2FA82F5C4F120046419B4F16B
:105800002006DAD3B2405FF00044F440002502E005
:1058100052085FEA3303C61A71EB020E24BF30460A
:10582000714664416D41F3D302000B002000290052
:1058300070BD000010F0004160B148BF4042B0FAB6
:1058400080F29040D21CC2F5846241EA025202EB1F
:10585000D021400570470000F0B540F2FF7581EAA5
:10586000030C0CF0004C15EA11541DBF15EA135738
:10587000AC42AF42E5E0BC41C1F31301C3F31303F3
:10588000801A994143F4801304D2641E00184941E0
:1058900080185941C90241EA5051B1FBF3F603FBAC
:1058A0001611A2FB0675D7EBC020A94102D2761EC5
:1058B00080185941C90241EA5051B1FBF3FE03FB84
:1058C0001E11A2FB0E75D7EBC020A94103D2AEF189
:1058D000010E80185941890241EA9051760546EA45
:1058E0008E2EB1FBF3F603FB1611A2FB0675D7EB68
:1058F0008020A94102D2761E80185941C90241EA8E
:1059000050514EEA060EB1FBF3F603FB1611A2FB53
:105910000675D7EBC020A94102D2761E80185941E6
:10592000C90241EA5051B1FBF3F703FB1711A2FB87
:105930000735D3EBC020A94167F100070CBF004237
:1059400047F0010766F3D5274FEA1E31B80814F572
:10595000806412DDBD0775F1004250EB0E5051EB33
:10596000045111F5801F5CBF41EA0C01F0BD4CF001
:105970007F6141F0E0410020F0BDBD076D0840EAC5
:105980000E5041F48011D4F10104B4F120060ADA7A
:10599000C4F120060200E04001FA06F3E14018439A
:1059A000B24015430EE0342C13DCC6F1200445EA66
:1059B00040056D0820FA06F2154321FA06F0A140D1
:1059C0000D43002175F1004250F1000051EB0C0134
:1059D000F0BD00205FEA0C01F0BDCFB992185B4129
:1059E000B3FA83F704BFB2FA82F6BF190B3FB7F1DF
:1059F00020062FBF02FA06F3BB40C7F1200622FAA9
:105A000006F638BF3343BA401CB1E419641E33E7CD
:105A10007F4231F00041B1FA81F404BFB0FA80F660
:105A2000A4190B3CB4F120062FBF00FA06F1A140E7
:105A3000C4F1200620FA06F638BF3143A0403C1BD3
:105A40001AE7AC421ABF05EA1357AF4212E050EA18
:105A500041061CBF52EA4306BFE750EA4107304601
:105A600061461CBF41EA0551F0BD52EA430C08BF34
:105A7000C143F0BD00204FF4001616EB410F98BF54
:105A800016EB430F08BF16EB410F24BFC14305E0DF
:105A900016EB430F0CBF61464CEA0551F0BD10B543
:105AA00042684A6093688B609468616091600861A5
:105AB0000168491C016010BD4368016982689A60F1
:105AC000836842685A604A68824204BF83684B60B8
:105AD000002202610868401E0860086870470000E4
